:020000040800F2
:1000000070050020450100087B1500084914000810
:10001000791500088D010008611A00080000000031
:100020000000000000000000000000009F15000814
:10003000D3010008000000009D150008A11500086C
:100040005F0100085F0100085F0100085F01000810
:100050005F0100085F0100085F0100085F01000800
:100060005F0100085F0100085F0100085F010008F0
:100070005F0100085F010008910100089D01000870
:100080005F0100085F0100085F0100085F010008D0
:100090005F0100085F0100085F0100085F010008C0
:1000A0005F0100085F0100085F0100085F010008B0
:1000B0005F0100085F0100085F0100085F010008A0
:1000C0005F0100085F0100085F0100085F01000890
:1000D0005F010008351A00085F0100085F01000891
:1000E0005F0100085F0100085F0100085F01000870
:1000F0005F0100085F0100085F0100085F01000860
:100100005F0100085F0100085F0100085F0100084F
:100110005F0100085F0100085F0100085F0100083F
:100120005F0100085F0100085F0100085F0100082F
:10013000DFF80CD000F018F800480047391B000821
:10014000700500200648804706480047FEE7FEE7A6
:10015000FEE7FEE7FEE7FEE7FEE7FEE7FEE7FEE777
:100160001916000831010008064C074D06E0E0684A
:1001700040F0010394E8070098471034AC42F6D3EE
:10018000FFF7DAFF301C0008501C0008FEE70000F3
:10019000014800F0B7B80000E4000020014800F07A
:1001A000B1B800002801002030B590F8405001247B
:1001B000AC40C56B6C60046863604368102B0368D7
:1001C00003D099600068C26030BD9A600068C16069
:1001D00030BD70472DE9F05F90F82110002402290E
:1001E00003D004218163012485E001680A6822F0BC
:1001F0000E020A6001680A6822F001020A603F4E9E
:100200003E4FB215DFF8F4C0DFF8F090DFF8ECA055
:10021000DFF8E8B0DFF8E4E00168783F1301150289
:10022000ACF1640CA9F15009AAF13C0AABF1280B1E
:10023000AEF1140E4FF48018B14227D9B9420ED056
:10024000614512D049451DD0514518D0594518D0A7
:10025000714501D1424615E0294EB14201D101223A
:1002600010E0274E1436B14201D110220AE0244E8C
:100270002836B14206D0224A3C32914201D11A4678
:1002800000E02A461E49091F0A602BE0B94213D03C
:10029000614517D0494522D051451DD059451DD043
:1002A000714501D142461AE0B14202D14FF080724D
:1002B00015E0134EB14201D1012210E0104E143668
:1002C000B14201D110220AE00D4E2836B14206D0CB
:1002D0000B4A3C32914201D11A4600E02A460749B6
:1002E00080394A60012180F82110002180F8201017
:1002F000416B01B188472046BDE8F09F8000024075
:10030000080402402DE9F05F0446C06B01682068D4
:100310000268236C4FF0040808FA03F88B4D8C4EEA
:100320008C4FDFF834C2DFF83492DFF834A2DFF804
:1003300034B2DFF834E218EA010F6BD05FEA42789A
:1003400068D50168890603D4016821F004010160C1
:10035000DFF80C824FF48060216808F11408020174
:100360000302414524D9A9420DD0B1420FD0B94270
:100370001AD0614515D0494515D0514501D100032A
:1003800012E0594501D104200EE0714501D1402011
:100390000AE0754D1435A94206D0734828308142D1
:1003A00001D1104600E018466E49091F086029E097
:1003B000A94213D0B14215D0B94220D061451BD01B
:1003C00049451BD0514502D14FF4800017E041450B
:1003D00002D14FF0806012E0594501D104200EE0B7
:1003E000714501D140200AE05F4D1435A94206D085
:1003F0005D482830814201D1104600E0184653493B
:1004000008394860E06A00287DD058A001F02AFB36
:10041000E16A94E04FF0020808FA03F818EA010FC5
:1004200073D05FEA827870D50168890606D40168C6
:1004300021F00A010160012084F82100DFF8208109
:100440004FF40071206808F114080A010B024045BE
:1004500024D9A8420DD0B0420FD0B8421AD060457E
:1004600015D0484515D0504501D1090312E0584533
:1004700001D102210EE0704501D120210AE03A4D60
:100480001435A84206D038492831884201D1114696
:1004900000E019463348001F016029E0A84213D04C
:1004A000B04215D0B84220D060451BD048451BD083
:1004B000504502D14FF4001117E0404502D14FF0F2
:1004C000007112E0584501D102210EE0704501D1C2
:1004D00020210AE0244D1435A84206D022492831B3
:1004E000884201D1114600E0194618480838416099
:1004F000002084F82000A06A002824D027A001F062
:10050000B1FAA16A1BE01EE0FFE708259D400D42FD
:1005100019D0110717D5016821F00E01016094F878
:100520004010E26B012000FA01F15160A06384F8F1
:100530002100002084F82000216B002903D02046F0
:10054000BDE8F05F0847BDE8F09F000008000240EA
:100550001C000240300002404400024058000240AB
:100560006C000240080402401C040240444D41312A
:100570005F4368616E6E656C345F49525148616ECD
:10058000646C6572205866657248616C6643706C75
:100590007443616C6C6261636B0A0000444D4131CD
:1005A0005F4368616E6E656C345F49525148616E9D
:1005B000646C6572205866657243706C7443616C3C
:1005C0006C6261636B200A0030B560B11C4A03683D
:1005D0001421934209D21B4A1A44B2FBF1F189005B
:1005E000016419490AE0012030BD154A52421A44FB
:1005F000B2FBF1F18900016411490839C16302219C
:1006000080F821101A6843F6F0718A43F0E901146A
:100610002143D0E902452C43214304692143446925
:1006200021438469214311431960002141628162A1
:10063000C16201634163012242770177084630BD00
:1006400008040240F8FFFDBF0000024070B50446F8
:1006500090F82000002501280CD0012084F820000B
:1006600094F821600020012E06D084F82000022595
:10067000284670BD022070BD022684F82160A06368
:100680002068066826F0010606602046FFF78CFD0C
:10069000E06A00282068016802D041F00E0106E0FF
:1006A00021F0040101602068016841F00A01016045
:1006B0002068016841F001010160D9E72DE9F84F98
:1006C000DFF8B8A100220AF1040B144601274FF00D
:1006D0000F090BF1040E00BF0B6807FA04F52B405D
:1006E000AB4274D1DFF898C14E68A6EB0C086645A2
:1006F0002BD00DDC032E34D005DC36B3012E19D0FF
:10070000022E2FD11BE0112E16D0122E2AD119E065
:10071000B8F5881F19D006DCB8F5803F15D0B8F5BC
:10072000801F1FD111E0B8F5001F0ED0B8F5041FCF
:1007300018D10AE0CA6815E0CA68121D12E0CA683A
:1007400008320FE0CA680C320CE08A682AB1012A2C
:100750004FF0080203D0456104E0042202E0056185
:1007600000E00022FF2B01D8064601E000F104065C
:100770004FEA840501D9A5F12005D6F800C009FA91
:1007800005F82CEA080C02FA05F54CEA050CC6F847
:1007900000C04D68ED006AD53A4DAE6946F00106DD
:1007A000AE61AD6924F0030605F001050095364DF4
:1007B00006EB050CDCF80850A6074FEA167809FA94
:1007C00008F6B543314EB04202D100261AE04EE0A1
:1007D0002F4EB04201D1012614E02E4EB04201D17D
:1007E00002260FE02C4EB04201D103260AE02B4E28
:1007F000B04201D1042605E0294EB04201D10526C0
:1008000000E0062606FA08F62E43CCF808604D688C
:10081000DAF80060ED03554601D51E4300E09E4323
:100820002E604D68AD0305D5DBF800601E43CBF8A4
:10083000006004E0DBF800509D43CBF800504D68A9
:10084000DEF80060ED02754601D51E4300E09E43D0
:100850002E604D68AD0205D5084D0C352E681E433F
:100860002E6004E0054E0C3635689D433560641CEF
:10087000102CFFF431AFBDE8F88F000000040140F8
:10088000000011100010024000000140000801406B
:10089000000C01400010014000140140001801400C
:1008A000001C01400AB1016170470904FBE7000028
:1008B00001488068704700000800002002488168F5
:1008C000027811448160704708000020074810B585
:1008D000016841F010010160032000F09DF8002044
:1008E00000F006F800F024F8002010BD00200240BF
:1008F00070B50D4D04464FF47A712878B1FBF0F0D5
:100900000A490968B1FBF0F000F02DFB48B9102C42
:1009100007D200222146501E00F05EF800206C60D5
:1009200070BD012070BD00000800002014000020F0
:10093000214808B5816941F001018161816901F0B7
:1009400001010091C16941F08051C161C06900F0AD
:1009500080500090032000F05FF8002211466FF0F5
:100960000B0000F039F8002211466FF00A0000F089
:1009700033F8002211466FF0090000F02DF8002234
:100980001146501F00F028F800221146101F00F0F9
:1009900023F800221146901E00F01EF80022114696
:1009A000501E00F019F80548416821F0E06141F05F
:1009B0008061416008BD000000100240000001405D
:1009C00000F01F02012191404009800000F1E02069
:1009D000C0F8001170470000F0B40E4B1B680C46C5
:1009E000C3F30223C3F10705042D00D90425191D03
:1009F000072901D2002300E0DB1E012606FA05F1DB
:100A0000491E214099409E40761E16403143F0BC5D
:100A100000F0B4BD0CED00E0064900F007020868E4
:100A20004FF6FF03184040EA0220034A10430860D3
:100A3000704700000CED00E00000FA052DE9F047DA
:100A4000DFF83C8105460E46D8F8000000F00700AC
:100A5000B0420CD2D8F8001021F007013143C8F899
:100A60000010D8F8000000F00700B04263D12878E9
:100A7000444C800705D56068A96820F0F000084361
:100A800060602878C00745D06868012816D02168C2
:100A9000022816D0890700294DDA616821F0030188
:100AA00001436160FFF704FF6968074641F288303F
:100AB00001290FD00229814619D027E02168890336
:100AC000E9E78901E7E700BFFFF7F2FEC11B4945EF
:100AD00001D918E081466068C0F381000128F3D194
:100AE00018E000BFFFF7E4FEC11B49450BD8606862
:100AF000C0F381000228F5D10CE000BFFFF7D8FE5B
:100B0000C11B494502D90320BDE8F087606810F099
:100B10000C0FF3D1D8F80010404601F00701B142A4
:100B20000BD9016821F0070131430160006800F032
:100B30000700B04201D00120E6E72878400705D53C
:100B40006068E96820F4E060084360602878000786
:100B500006D56068296920F4605040EAC1006060F1
:100B600000F03CF86168084AC1F30311515CC840C9
:100B7000064908600020FFF7BBFE0020C4E7000024
:100B80000020024000100240181C00081400002041
:100B9000014800687047000014000020044805491F
:100BA00000684968044AC1F30221515CC84070479B
:100BB0001400002000100240281C000804480549C9
:100BC00000684968044AC1F3C221515CC8407047BB
:100BD0001400002000100240281C000812A185B05B
:100BE0000FC98DE80F0014A0144A006804905168E2
:100BF000134801F00C03042B10D0082B0ED1C1F3C5
:100C00008343C9031DF803000AD5516804AAC1F340
:100C10004041515C0A4A5043B0FBF1F005B07047C7
:100C200008494843FAE700000203040506070809DB
:100C30000A0B0C0D0E0F10100102000000100240F4
:100C400000127A0000093D002DE9F84F04460078B3
:100C5000B94DC00748D06868C0F38100012807D0AB
:100C60006868C0F38100022809D16868C00306D50E
:100C70002868800338D5606800286FD034E0606849
:100C8000B0F5803F0BD010B1B0F5A02F11D028687F
:100C900020F480302860286820F4802002E0286852
:100CA00040F480302860606888B1FFF701FE064696
:100CB00009E0286840F480202860F0E7FFF7F8FD9D
:100CC000801B642875D828688003F7D50CE0FFF7EF
:100CD000EFFD064605E000BFFFF7EAFD801B642834
:100CE000F0D828688003F7D42078944E80074FF01E
:100CF00001094FF000083BD5686810F00C0F07D0D1
:100D00006868C0F38100022809D16868C00306D46E
:100D10002868800714D5206901281FD110E02069B8
:100D2000B0B1C6F80090FFF7C3FD074605E000BF6D
:100D3000FFF7BEFDC01B0228C4D828688007F7D57E
:100D40002868616920F0F80040EAC10028600FE0DF
:100D5000C6F80080FFF7ACFD074606E0E9E000BFFB
:100D6000FFF7A6FDC01B022823D828688007F7D408
:100D7000207800072CD57248A169D9B1C0F800903D
:100D8000FFF796FD074604E0FFF792FDC01B02281F
:100D90000FD8686A8007F7D56A484FF4FA5100689F
:100DA000B0FBF1F0009000BF0098411E0091FAD214
:100DB0000EE080E0C0F80080FFF77AFD074604E00F
:100DC000FFF776FDC01B022875D8686A8007F7D444
:100DD0002078400760D5E8690027C00008D4E8699A
:100DE00040F08050E861E869012700F080500090F1
:100DF00055480168C90513D40168834641F48071E0
:100E00000160FFF755FD824606E000BFFFF750FD89
:100E1000A0EB0A0064284ED8DBF80000C005F5D529
:100E2000E06801280AD008B1052813D0286A20F00C
:100E300001002862286A20F0040002E0286A40F0DD
:100E400001002862E06841F2883B98B1FFF730FD6D
:100E500082460BE0286A40F004002862EEE700BFFB
:100E6000FFF726FDA0EB0A0159455AD8286A8007EA
:100E7000F6D50CE0FFF71CFD824605E0FFF718FDF4
:100E8000A0EB0A0159454CD8286A8007F6D41FB157
:100E9000E86920F08050E861E06988B36968C1F3CF
:100EA0008101022945D00228C6F8608004D0FFF7EE
:100EB000FFFC044638E034E0FFF7FAFC074604E0A4
:100EC000FFF7F6FCC01B02282BD828688001F7D456
:100ED000206AB0F5803F05D16868A16820F4003031
:100EE00008436860D4E908010843696821F4741173
:100EF00008436860C6F86090FFF7DAFC044606E035
:100F000015E000BFFFF7D4FC001B022809D82868B1
:100F10008001F7D50BE000BFFFF7CAFC001B0228D9
:100F200002D90320BDE8F88F28688001F4D400209E
:100F3000F8E70120F6E700000010024000004242FE
:100F40008004424214000020007000404FF0E02175
:100F50000428086903D020F004000861704740F0BD
:100F60000400FAE7704710B5401EB0F1807F01D34E
:100F7000012010BD4FF0E02460610F21601700F0E8
:100F8000FDFA0020A06107202061002010BD10B5EF
:100F9000FFF7E8FF10BD704770B50268044610689F
:100FA000D168536910F00F0F50D003F0010501F420
:100FB000907635435DD0C20705D0CA0503D5E26BF4
:100FC00042F00102E263420705D5DA0703D0E26B83
:100FD00042F00202E263820705D5DA0703D0E26B32
:100FE00042F00402E263020705D5DA0703D0E26BA0
:100FF00042F00802E263E26B002A33D0800604D597
:10100000880602D5204600F0AEFB20684069E16BFF
:10101000C0F38010090700D428B3204600F08CFBF1
:101020002068416949061AD5416921F040014161B2
:10103000606BA0B11B494163606BFFF7CBF80028E0
:1010400010D0606B416BBDE870400847830610D537
:101050008B060ED52046BDE8704000F084BB2046CC
:10106000FFF799FF70BD2046FFF795FF0020E06372
:1010700070BD030606D50B0604D52046BDE87040BA
:1010800000F074BC4006F3D54806F1D5D16820467F
:1010900021F04001D160202184F8391000F0B4F92A
:1010A00070BD00006116000870B5040004D094F80B
:1010B0003900002510B106E0012070BD84F83850D9
:1010C000204600F023F8242084F839002068C16805
:1010D00021F40051C160204600F090FB20680169B6
:1010E00021F4904101612068416921F02A014161A8
:1010F0002068C16841F40051C160E563202084F894
:10110000390084F83A00002070BD0000F0B50646B2
:1011100003683B48394D022103220715002485B09E
:10112000AB424FD1836943F4804383618069354D7D
:1011300000F4804004900802CDE900010392694662
:101140002846FFF7BBFACDE90074694628460294A9
:10115000FFF7B4FA2D4D2C48802701C5102091C50A
:10116000000245F810496C61C5E906402748FFF7C1
:101170002BFA18B1842126A000F073FC35636E624F
:10118000224D214844351430C5E90004C5E9024721
:1011900020202C61C5E905400002E8612846FFF7E0
:1011A00013FA18B194211AA000F05BFC75630022B9
:1011B000114625206E62FFF70FFC2520FFF700FC8B
:1011C00005B0F0BD164DAB42FAD1C36943F480239C
:1011D000C361C069CDE9007100F48020CDE903202E
:1011E000104D69462846FFF769FAE814CDE9000476
:1011F000694628460294FFF761FAE1E700380140AA
:10120000001002400008014044000240E4000020B9
:101210002E2E2F5372632F75736172742E6300002C
:1012200000480040000C0140F8B5044690F83A0030
:1012300020283CD1C1B3BAB394F83800012836D085
:10124000012084F83800A162A2850025E5632220F0
:1012500084F83A00636B17489862636B1648D8624B
:10126000636B16481863606B134645630846666BEC
:10127000216802463046091DFFF7E8F92068016839
:101280004168009184F83850C16841F48071C160B0
:101290002068416941F0010141612068416941F0E4
:1012A000400141610020F8BDFFE70120FBE702207B
:1012B000F9E70000BB160008F716000871160008D1
:1012C00001490120087070470400002070472DE993
:1012D000F843044690F839001F4616460D4620286C
:1012E00050D1A5B19EB194F8380001284AD0012010
:1012F00084F838004FF00008C4F83C80212084F8BE
:101300003900FFF7D5FAA6848146E68426E001205D
:10131000BDE8F883E08C401EE084A0684B46B0F541
:10132000805F4FF000024FF080012046009703D00D
:1013300000F04DFBE8B90DE000F049FBC8B9288882
:101340002168C0F308004860206908B16D1C05E001
:10135000AD1C03E0216815F8010B4860E08C002803
:10136000D8D14B46002240212046009700F02FFBA9
:1013700008B10320CCE7202084F8390084F83880B5
:101380000020C5E70220C3E770B5044690F8390095
:10139000202830D169B362B394F8380001282AD0EC
:1013A000012084F838002162A284E2840025E563EC
:1013B000212084F83900236B10489862236B104871
:1013C000D862236B0F481863206B13464563266869
:1013D000206B321DFFF73AF921686FF0400008607A
:1013E00084F838502068416941F080014161002053
:1013F00070BD012070BD022070BD00000117000803
:101400002F1700087116000810B5064C0022232182
:101410002046FFF747FA20460122BDE8104003218D
:10142000FFF740BA000C014010B5064C0022232102
:101430002046FFF737FA20460122BDE81040202160
:10144000FFF730BA000C0140FEE700000D4808B578
:10145000416941F0010141614069002200F0010051
:10146000009011460E20FFF7B7FA0E20FFF7A8FAFA
:10147000002211460F20FFF7AFFABDE808400F2009
:10148000FFF79EBA00100240134810B5816986B07C
:1014900041F008018161816901F0080104918169CD
:1014A00041F00401816180690C4C00F0040004905B
:1014B000002223212046FFF7F5F923200090012088
:1014C0000190002002900220039069462046FFF719
:1014D000F5F806B010BD000000100240000C0140FD
:1014E0000D4810B50B4901604FF4E1314160002116
:1014F00081600C22C160C0E904128161C161FFF703
:10150000D3FD002805D0BDE81040462103A000F01F
:10151000A8BA10BD00380140640000202E2E2F53C1
:1015200072632F75736172742E6300000D4810B5DD
:101530000B4901604FF416514160002181600C227B
:10154000C160C0E904128161C161FFF7ADFD0028EF
:1015500005D0BDE81040592103A000F082BA10BDAB
:1015600000480040A40000202E2E2F5372632F75D8
:10157000736172742E630000FEE770470907090E5D
:10158000002806DA00F00F0000F1E02080F8141DBA
:10159000704700F1E02080F80014704770477047F2
:1015A00010B5FFF78BF9BDE81040FFF7F0BC30B580
:1015B0008FB001210804CDE9001000240294022517
:1015C0000491CDE907504FF4E01009906846FFF709
:1015D0003BFB00B1FEE70F20CDE90A054FF4806028
:1015E000CDE90C4002210AA80E94FFF727FA00B1BA
:1015F000FEE7FFF7CDFA4FF47A71B0FBF1F0FFF799
:10160000B2FC0420FFF7A2FC00221146501EFFF797
:10161000E3F90FB030BD00000D48016841F0010151
:10162000016041680B4A1140416001680A4A11405B
:101630000160016821F480210160416821F4FE010C
:1016400041604FF41F0181600449C0030860704786
:10165000001002400000FFF8FFFFF6FE08ED00E07A
:1016600010B5406A0021C185C184FFF794FC10BD0C
:1016700070B5446A2068406994F83910C0F3C0100E
:101680000025212904D118B1E584204600F062F834
:101690002068406994F83A10C0F38010222904D1E0
:1016A00018B1E585204600F047F8E06B40F01000E7
:1016B000E0632046FFF76FFC70BD10B50146406A3D
:1016C00009680968890613D40021C1850168CA68C0
:1016D00022F48072CA6001684A6922F001024A61FC
:1016E00001684A6922F040024A61202180F83A10DC
:1016F000FFF7E6FD10BD10B5406AFFF7E7FD10BD2E
:1017000010B50146406A0968096889060CD40021B1
:10171000C18401684A6922F080024A610068C16898
:1017200041F04001C16010BDFFF76EFE10BD10B565
:10173000406AFFF779FE10BD0168CA6822F4907212
:10174000CA6001684A6922F001024A61202180F8DA
:101750003A1070470168CA6822F0C002CA602021AE
:1017600080F83910704710B590F83A10222901D04E
:10177000022010BD8168B1F5805F11D00169002998
:1017800001681FD0496801F07F03816A4A1C8262A8
:101790000B70C18D491E0904090CC18518D02BE0BE
:1017A0000269816A002A0268526805D0D2B20A80B2
:1017B000816A491C8162ECE7C2F308020A80816AEF
:1017C000891CF7E74A68816A4B1C83620A70E0E76C
:1017D0000168CA6822F02002CA600168CA6822F45F
:1017E0008072CA6001684A6922F001024A612021C0
:1017F00080F83A10FFF764FD002010BD2DE9F0419C
:10180000044600680169E26821F440511143016116
:101810002169A0680843616908432168CA6841F2E8
:101820000C639A430243CA6020684169A26921F4AB
:101830004071114341614C49206864253226884239
:101840003CD1FFF7BBF900EBC00101EB0010616870
:101850008900B0FBF1F7FFF7B1F900EBC00101EB34
:1018600000106168B0468900B0FBF1F0B0FBF5F004
:101870006FF01801484307EB800106EB0110B0FB45
:10188000F5F000F0F006FFF799F900EBC00101EB6D
:10189000001061688900B0FBF1F0B0FBF5F006EBD9
:1018A0000016FFF78BF900EBC00101EB0010616837
:1018B0008900B0FBF1F7FFF781F93BE0FFF76EF924
:1018C00000EBC00101EB001061688900B0FBF1F78B
:1018D000FFF764F900EBC00101EB00106168B0464E
:1018E0008900B0FBF1F0B0FBF5F06FF01801484350
:1018F00007EB800106EB0110B0FBF5F000F0F006FD
:10190000FFF74CF900EBC00101EB001061688900A2
:10191000B0FBF1F0B0FBF5F006EB0016FFF73EF977
:1019200000EBC00101EB001061688900B0FBF1F72A
:10193000FFF734F900EBC00101EB0010616889008A
:10194000B0FBF1F0B0FBF5F06FF01801484307EB86
:10195000800108EB0110B0FBF5F0216800F00F00EA
:1019600030448860BDE8F0810038014090F83910BB
:10197000212901D0022070478168B1F5805F016A9A
:101980000BD04A1C0262026809785160C18C491E62
:101990000904090CC1840ED017E009880268C1F35C
:1019A0000801516001690029016A02D0491C0162E5
:1019B000ECE7891CFBE70168CA6822F08002CA6074
:1019C0000068C16841F04001C160002070472DE906
:1019D000F041984617460E460446069D1DE0681CD9
:1019E0001BD02DB1FEF764FFA0EB0800A84214D96C
:1019F0002068C16821F4D071C1602068416921F07C
:101A000001014161202084F8390084F83A00002067
:101A100084F838000320BDE8F0812068006836EAC9
:101A2000000004D00020B842D9D00020F3E7012004
:101A3000F9E7000010B504A000F014F8BDE810406C
:101A40000648FFF7A9BA00005553415254315F4987
:101A5000525148616E646C65720A00006400002097
:101A6000FEE7FEE7014A024900F013B8211B000817
:101A70001800002002E008C8121F08C1002AFAD18D
:101A800070477047002001E001C1121F002AFBD1FE
:101A900070472DE9F04116460F460446002503E045
:101AA0003946B047641C6D1C20780028F8D12846C0
:101AB000BDE8F08170B5054600244FF47A7603E066
:101AC000304600F005F8641CAC42F9D370BD00004C
:101AD00070B504460420FFF739FA0E480E494FF05E
:101AE000E02500680022B0FBF1F10C480160686954
:101AF000AB694C43A9699942FCD002D2A3EB010324
:101B000002E0A0EB010633441A440B46A242F1D393
:101B100070BD00001400002040420F0000000020B3
:101B200013B501231A4669460248FFF7D0FB009817
:101B30001CBD0000A400002000202E4A702111547A
:101B4000401C1E28FBD300202B492D220A54401C88
:101B50001E28FBD3FEF7BAFEFFF729FDFFF794FC22
:101B6000FFF774FCFFF7BCFCFFF7E0FC23480068BC
:101B7000C16821F04001C160214C1E221D491F484F
:101B8000FFF702FC0028F8D1206841680029FCD149
:101B90001C4D002223212846FEF784FE002223212B
:101BA0002846FEF77FFE4FF4FA60FFF783FF16A08A
:101BB000FFF758FF1E2210491048FFF7E5FB206889
:101BC00041680029FCD10A2211490C48FFF72CFB7F
:101BD000104D002628780128FCD10A220C4907481C
:101BE000FFF7D2FB0028F8D1206841680029FCD11A
:101BF0002E70EFE71C0000203A0000206400002057
:101C0000E4000020000C014074776F0A000000001F
:101C10005800002004000020000000000000000028
:101C20000102030406070809000000000102030482
:101C3000501C0008000000201C000000741A00085E
:101C40006C1C00081C00002054050000841A0008C9
:101C50000000000000000000010000001000000073
:0C1C60000000000000A24A040000000088
:0400000508000131BD
:00000001FF
