:020000040800F2
:10000000E00400204501000857100008CF0E00084A
:10001000551000088D010008B5130008000000000D
:100020000000000000000000000000007B1000083D
:100030008F01000800000000791000087D10000802
:100040005F0100085F0100085F0100085F01000810
:100050005F0100085F0100085F0100085F01000800
:100060005F0100085F0100085F0100085F010008F0
:100070005F0100085F0100085F0100085F010008E0
:100080005F0100085F0100085F0100085F010008D0
:100090005F0100085F0100085F0100085F010008C0
:1000A0005F0100085F0100085F0100085F010008B0
:1000B0005F0100085F0100085F0100085F010008A0
:1000C0005F0100085F0100085F0100085F01000890
:1000D0005F0100085F0100085F0100085F01000880
:1000E0005F0100085F0100085F0100085F01000870
:1000F0005F0100085F0100085F0100085F01000860
:100100005F0100085F0100085F0100085F0100084F
:100110005F0100085F0100083D1100084911000857
:100120005F0100085F0100085F0100085F0100082F
:10013000DFF80CD000F018F8004800472114000840
:10014000E00400200648804706480047FEE7FEE737
:10015000FEE7FEE7FEE7FEE7FEE7FEE7FEE7FEE777
:10016000F510000831010008064C074D06E0E06874
:1001700040F0010394E8070098471034AC42F6D3EE
:10018000FFF7DAFF7414000894140008FEE77047C4
:100190002DE9F84FDFF8B8A100220AF1040B14464C
:1001A00001274FF00F090BF1040E00BF0B6807FA8F
:1001B00004F52B40AB4274D1DFF898C14E68A6EB32
:1001C0000C0866452BD00DDC032E34D005DC36B38D
:1001D000012E19D0022E2FD11BE0112E16D0122E77
:1001E0002AD119E0B8F5881F19D006DCB8F5803F90
:1001F00015D0B8F5801F1FD111E0B8F5001F0ED043
:10020000B8F5041F18D10AE0CA6815E0CA68121DC3
:1002100012E0CA6808320FE0CA680C320CE08A6843
:100220002AB1012A4FF0080203D0456104E00422FC
:1002300002E0056100E00022FF2B01D8064601E044
:1002400000F104064FEA840501D9A5F12005D6F88E
:1002500000C009FA05F82CEA080C02FA05F54CEA88
:10026000050CC6F800C04D68ED006AD53A4DAE6980
:1002700046F00106AE61AD6924F0030605F0010504
:100280000095364D06EB050CDCF80850A6074FEA42
:10029000167809FA08F6B543314EB04202D100266D
:1002A0001AE04EE02F4EB04201D1012614E02E4E4E
:1002B000B04201D102260FE02C4EB04201D10326FC
:1002C0000AE02B4EB04201D1042605E0294EB0428F
:1002D00001D1052600E0062606FA08F62E43CCF8E2
:1002E00008604D68DAF80060ED03554601D51E43FD
:1002F00000E09E432E604D68AD0305D5DBF800603D
:100300001E43CBF8006004E0DBF800509D43CBF8BF
:1003100000504D68DEF80060ED02754601D51E43C1
:1003200000E09E432E604D68AD0205D5084D0C35AA
:100330002E681E432E6004E0054E0C3635689D4342
:100340003560641C102CFFF431AFBDE8F88F00005D
:1003500000040140000011100010024000000140A4
:1003600000080140000C0140001001400014014051
:1003700000180140001C01400AB1016170470904E6
:10038000FBE700000148806870470000080000207B
:10039000024881680278114481607047080000209B
:1003A000074810B5016841F010010160032000F01A
:1003B0009DF8002000F006F800F024F8002010BDA1
:1003C0000020024070B50D4D04464FF47A71287834
:1003D000B1FBF0F00A490968B1FBF0F000F02DFB29
:1003E00048B9102C07D200222146501E00F05EF8BA
:1003F00000206C6070BD012070BD0000080000206E
:1004000014000020214808B5816941F00101816193
:10041000816901F001010091C16941F08051C16120
:10042000C06900F080500090032000F05FF80022C7
:1004300011466FF00B0000F039F8002211466FF002
:100440000A0000F033F8002211466FF0090000F0B6
:100450002DF800221146501F00F028F80022114606
:10046000101F00F023F800221146901E00F01EF825
:1004700000221146501E00F019F80548416821F08D
:10048000E06141F08061416008BD00000010024061
:100490000000014000F01F0201219140400980004E
:1004A00000F1E020C0F8001170470000F0B40E4BDE
:1004B0001B680C46C3F30223C3F10705042D00D9C2
:1004C0000425191D072901D2002300E0DB1E0126A7
:1004D00006FA05F1491E214099409E40761E1640BD
:1004E0003143F0BC00F0B8BD0CED00E0064900F06F
:1004F000070208684FF6FF03184040EA0220034A4B
:1005000010430860704700000CED00E00000FA05A1
:100510002DE9F047DFF83C8105460E46D8F800008B
:1005200000F00700B0420CD2D8F8001021F007010B
:100530003143C8F80010D8F8000000F00700B042BE
:1005400063D12878444C800705D56068A96820F0FD
:10055000F000084360602878C00745D0686801282B
:1005600016D02168022816D0890700294DDA616863
:1005700021F0030101436160FFF704FF696807464A
:1005800041F2883001290FD00229814619D027E095
:1005900021688903E9E78901E7E700BFFFF7F2FE79
:1005A000C11B494501D918E081466068C0F381004C
:1005B0000128F3D118E000BFFFF7E4FEC11B494555
:1005C0000BD86068C0F381000228F5D10CE000BFB1
:1005D000FFF7D8FEC11B494502D90320BDE8F087CB
:1005E000606810F00C0FF3D1D8F80010404601F00D
:1005F0000701B1420BD9016821F0070131430160C5
:10060000006800F00700B04201D00120E6E728783A
:10061000400705D56068E96820F4E0600843606041
:100620002878000706D56068296920F4605040EA00
:10063000C100606000F03CF86168084AC1F3031132
:10064000515CC840064908600020FFF7BBFE00204F
:10065000C4E7000000200240001002405C140008C3
:1006600014000020014800687047000014000020BA
:100670000448054900684968044AC1F30221515CF5
:10068000C840704714000020001002406C1400089D
:100690000448054900684968044AC1F3C221515C15
:1006A000C840704714000020001002406C1400087D
:1006B00012A185B00FC98DE80F0014A0144A00687C
:1006C00004905168134801F00C03042B10D0082B40
:1006D0000ED1C1F38343C9031DF803000AD5516845
:1006E00004AAC1F34041515C0A4A5043B0FBF1F007
:1006F00005B0704708494843FAE7000002030405C3
:10070000060708090A0B0C0D0E0F1010010200005D
:100710000010024000127A0000093D002DE9F84F58
:1007200004460078B94DC00748D06868C0F381001E
:10073000012807D06868C0F38100022809D16868E1
:10074000C00306D52868800338D5606800286FD0BC
:1007500034E06068B0F5803F0BD010B1B0F5A02F49
:1007600011D0286820F480302860286820F4802088
:1007700002E0286840F480302860606888B1FFF7A4
:1007800001FE064609E0286840F480202860F0E772
:10079000FFF7F8FD801B642875D828688003F7D51B
:1007A0000CE0FFF7EFFD064605E000BFFFF7EAFDAE
:1007B000801B6428F0D828688003F7D42078944EF2
:1007C00080074FF001094FF000083BD5686810F032
:1007D0000C0F07D06868C0F38100022809D168684F
:1007E000C00306D42868800714D5206901281FD1CA
:1007F00010E02069B0B1C6F80090FFF7C3FD0746CE
:1008000005E000BFFFF7BEFDC01B0228C4D8286862
:100810008007F7D52868616920F0F80040EAC10038
:1008200028600FE0C6F80080FFF7ACFD074606E041
:10083000E9E000BFFFF7A6FDC01B022823D8286807
:100840008007F7D4207800072CD57248A169D9B168
:10085000C0F80090FFF796FD074604E0FFF792FD11
:10086000C01B02280FD8686A8007F7D56A484FF482
:10087000FA510068B0FBF1F0009000BF0098411EF3
:100880000091FAD20EE080E0C0F80080FFF77AFD18
:10089000074604E0FFF776FDC01B022875D8686A9A
:1008A0008007F7D42078400760D5E8690027C000AA
:1008B00008D4E86940F08050E861E869012700F059
:1008C0008050009055480168C90513D401688346DB
:1008D00041F480710160FFF755FD824606E000BFDC
:1008E000FFF750FDA0EB0A0064284ED8DBF80000AB
:1008F000C005F5D5E06801280AD008B1052813D055
:10090000286A20F001002862286A20F0040002E032
:10091000286A40F001002862E06841F2883B98B103
:10092000FFF730FD82460BE0286A40F004002862A1
:10093000EEE700BFFFF726FDA0EB0A0159455AD8A4
:10094000286A8007F6D50CE0FFF71CFD824605E01B
:10095000FFF718FDA0EB0A0159454CD8286A80071B
:10096000F6D41FB1E86920F08050E861E06988B3EF
:100970006968C1F38101022945D00228C6F8608068
:1009800004D0FFF7FFFC044638E034E0FFF7FAFC40
:10099000074604E0FFF7F6FCC01B02282BD82868A6
:1009A0008001F7D4206AB0F5803F05D16868A1685E
:1009B00020F4003008436860D4E9080108436968FE
:1009C00021F4741108436860C6F86090FFF7DAFC00
:1009D000044606E015E000BFFFF7D4FC001B022828
:1009E00009D828688001F7D50BE000BFFFF7CAFCE3
:1009F000001B022802D90320BDE8F88F2868800177
:100A0000F4D40020F8E70120F6E7000000100240CF
:100A10000000424280044242140000200070004066
:100A20004FF0E0210428086903D020F00400086199
:100A3000704740F00400FAE7704710B5401EB0F16F
:100A4000807F01D3012010BD4FF0E02460610F21B1
:100A5000601700F001FB0020A0610720206100204A
:100A600010BD10B5FFF7E8FF10BD7047704730B5F7
:100A700090F83C20012A20D0012280F83C2002235B
:100A800080F83D3003685C6824F070045C600368A3
:100A90005C680D682C435C6003689C6824F08004EB
:100AA0009C6003689C6849680C439C6080F83D200A
:100AB000002180F83C10084630BD022030BD10B542
:100AC000040003D094F83D0010B107E0012010BDF0
:100AD000002084F83C00204600F00CF8022084F846
:100AE0003D00211D206800F035FB012084F83D0009
:100AF000002010BD08B5154A0168154891420ED175
:100B0000C16941F01001C161C069002200F010000C
:100B1000009011463620FFF7C9FC362010E00D4A40
:100B2000914211D1C16941F02001C161C069002227
:100B300000F02000009011463720FFF7B7FC372067
:100B4000BDE80840FFF7A6BC08BD0000001000404B
:100B500000100240001400400168CA6842F001021F
:100B6000CA600068016841F001010160002070471F
:100B7000704770B50446006801694FF00005C9432D
:100B8000890715D4C168C943890711D4E91E0161D9
:100B900001202077206880698007204602D0FFF777
:100BA000E7FF04E000F098F8204600F096F825777B
:100BB00020680169C943490717D4C168C943490777
:100BC00013D46FF00401016102202077206880694E
:100BD00010F4407F204602D0FFF7CAFF04E000F087
:100BE0007BF8204600F079F8257720680169C94331
:100BF000090716D4C168C943090712D46FF0080168
:100C00000161042020772068C0698007204602D057
:100C1000FFF7AEFF04E000F05FF8204600F05DF85B
:100C2000257720680169C943C90617D4C168C9433B
:100C3000C90613D46FF010010161082020772068E5
:100C4000C06910F4407F204602D0FFF791FF04E016
:100C500000F042F8204600F040F82577206801694E
:100C6000C943C90708D1C168C943C90704D1891E4E
:100C70000161204600F032F820680169C943090685
:100C800009D4C168C943090605D46FF08001016128
:100C90002046FFF7EAFE20680169C943490609D4E6
:100CA000C168C943490605D46FF04001016120467F
:100CB00000F052F820680169C94389060BD4C16865
:100CC000C943890607D46FF0200101612046BDE8C1
:100CD0007040FFF7CBBE70BD704770472DE9F04103
:100CE000054618480026184C4FF47A774FF4FA68F6
:100CF000854210D12068154B401C4FF48071206054
:100D0000B84201D1012203E0404504D1002226600F
:100D10001846FFF731FB0E48854210D161680D4837
:100D2000491C6160B94201D1002203E0414506D16E
:100D300001226660BDE8F0412321FFF71DBBBDE83D
:100D4000F08100001C00002000000020000801408D
:100D50005C000020000C0140704770B5040004D016
:100D600094F83900002510B106E0012070BD84F828
:100D70003850204600F022F8242084F839002068FA
:100D8000C16821F40051C160204600F029FA2068B2
:100D9000016921F4904101612068416921F02A0133
:100DA00041612068C16841F40051C160E5632020C1
:100DB00084F8390084F83A00002070BD10B500684E
:100DC000114986B088421DD11048816941F48041A3
:100DD000816180690E4C00F4804004904FF40070F3
:100DE0000090022001900320039069462046FFF7FF
:100DF000CFF900212015CDE9000102916946204676
:100E0000FFF7C6F906B010BD0038014000100240DF
:100E1000000801402DE9F843044690F839001F46C8
:100E200016460D46202850D1A5B19EB194F8380041
:100E300001284AD0012084F838004FF00008C4F897
:100E40003C80212084F83900FFF79CFAA684814673
:100E5000E68426E00120BDE8F883E08C401EE084B3
:100E6000A0684B46B0F5805F4FF000024FF0800164
:100E70002046009703D000F06BFAE8B90DE000F0CF
:100E800067FAC8B928882168C0F30800486020695B
:100E900008B16D1C05E0AD1C03E0216815F8010BDD
:100EA0004860E08C0028D8D14B46002240212046E3
:100EB000009700F04DFA08B10320CCE7202084F819
:100EC000390084F838800020C5E70220C3E7FEE738
:100ED0002DE9F0431B4885B0816941F0080181612B
:100EE000816901F008010491816941F00401816187
:100EF0008069DFF8548000F0040004900022232170
:100F00004046FFF739FADFF844904FF4807700222B
:100F100039464846FFF730FA2320012400250226EF
:100F20008DE8710069464046FFF732F901AA009743
:100F300082E8700069464846FFF72AF905B0BDE827
:100F4000F083000000100240000C01400008014046
:100F50001CB511480F49002401604721C0E9011464
:100F600040F2E731C16080218161FFF7A8FD18B12F
:100F70003E210AA000F01FFA009469460648019439
:100F8000FFF775FD002803D0452104A000F013FAF7
:100F90001CBD0000001000401C0000202E2E2F530E
:100FA00072632F74696D2E63000000001CB5114838
:100FB0000F49002401604721C0E901144FF47A7100
:100FC000C16080218161FFF77AFD18B155210AA027
:100FD00000F0F1F90094694606480194FFF747FDD7
:100FE000002803D05C2104A000F0E5F91CBD00003E
:100FF000001400405C0000202E2E2F5372632F74CB
:10100000696D2E63000000000D4810B50B490160AA
:101010004FF416514160002181600C22C160C0E98B
:1010200004128161C161FFF798FE002805D0BDE878
:101030001040422103A000F0BEB910BD00380140AD
:101040009C0000202E2E2F5372632F7573617274D3
:101050002E630000FEE770470907090E002806DA34
:1010600000F00F0000F1E02080F8141D704700F13F
:10107000E02080F8001470477047704710B5FFF704
:1010800087F9BDE81040FFF7ECBC30B58FB0012107
:101090000804CDE900100024029402250491CDE952
:1010A00007504FF4E01009906846FFF737FB00B196
:1010B000FEE70F20CDE90A054FF48060CDE90C4032
:1010C00002210AA80E94FFF723FA00B1FEE7FFF70A
:1010D000C9FA4FF47A71B0FBF1F0FFF7AEFC0420CF
:1010E000FFF79EFC00221146501EFFF7DFF90FB0FC
:1010F00030BD00000D48016841F001010160416808
:101100000B4A1140416001680A4A114001600168C0
:1011100021F480210160416821F4FE0141604FF417
:101120001F0181600449C00308607047001002403D
:101130000000FFF8FFFFF6FE08ED00E00148FFF7B2
:1011400018BD00001C0000200148FFF712BD000080
:101150005C000020F0B502681C4B1D4D1D4E1E4F5B
:101160001E4C4FF0804C984209D0A04207D06045F9
:1011700005D0A84203D0B04201D0B84204D122F039
:10118000700E4A6842EA0E02984209D0A04207D087
:10119000604505D0A84203D0B04201D0B84203D187
:1011A00022F44075CA682A4322F080054A692A431E
:1011B00002608A68C2620A688262984201D0A042D4
:1011C00001D10969016301214161F0BD002C014099
:1011D0000004004000080040000C004000340140C2
:1011E0002DE9F041044600680169E26821F44051AC
:1011F000114301612169A0680843616908432168BE
:10120000CA6841F20C639A430243CA60206841698C
:10121000A26921F44071114341614C492068642561
:10122000322688423CD1FFF733FA00EBC00101EBD4
:10123000001061688900B0FBF1F7FFF729FA00EBB5
:10124000C00101EB00106168B0468900B0FBF1F00D
:10125000B0FBF5F06FF01801484307EB800106EB97
:101260000110B0FBF5F000F0F006FFF711FA00EB0B
:10127000C00101EB001061688900B0FBF1F0B0FB28
:10128000F5F006EB0016FFF703FA00EBC00101EBE7
:10129000001061688900B0FBF1F7FFF7F9F93BE056
:1012A000FFF7E6F900EBC00101EB0010616889006F
:1012B000B0FBF1F7FFF7DCF900EBC00101EB001028
:1012C0006168B0468900B0FBF1F0B0FBF5F06FF05B
:1012D0001801484307EB800106EB0110B0FBF5F065
:1012E00000F0F006FFF7C4F900EBC00101EB0010BD
:1012F00061688900B0FBF1F0B0FBF5F006EB001679
:10130000FFF7B6F900EBC00101EB0010616889003E
:10131000B0FBF1F7FFF7ACF900EBC00101EB0010F7
:1013200061688900B0FBF1F0B0FBF5F06FF01801D7
:10133000484307EB800108EB0110B0FBF5F0216892
:1013400000F00F0030448860BDE8F08100380140B3
:101350002DE9F041984617460E460446069D1DE0CD
:10136000681C1BD02DB1FFF70DF8A0EB0800A842B8
:1013700014D92068C16821F4D071C1602068416926
:1013800021F001014161202084F8390084F83A00FD
:10139000002084F838000320BDE8F0812068006850
:1013A00036EA000004D00020B842D9D00020F3E78C
:1013B0000120F9E7FEE7FEE7014A024900F013B811
:1013C000091400081800002002E008C8121F08C114
:1013D000002AFAD170477047002001E001C1121FB6
:1013E000002AFBD170472DE9F04116460F4604460E
:1013F000002503E03946B047641C6D1C20780028A6
:10140000F8D12846BDE8F08113B5102301226946C2
:101410000248FFF7FFFC00981CBD00009C00002064
:10142000FEF7BEFFFFF731FEFFF752FDFFF790FD1D
:10143000FFF7BCFDFFF7E8FD0448FFF78DFB04480C
:10144000FFF78AFB03A0FFF7B7FFFEE71C000020B1
:101450005C000020737461727400000000000000E2
:101460000000000001020304060708090000000054
:101470000102030494140008000000201C00000076
:10148000C8130008B01400081C000020C4040000A9
:10149000D813000800000000000000000100000058
:1014A000100000000000000000A24A04000000003C
:0400000508000131BD
:00000001FF
