:020000040800F2
:100000003807002045010008EB1300089B12000888
:10001000E9130008530200089518000800000000CA
:100020000000000000000000000000000F140008A5
:1000300055020008000000000D140008111400080B
:100040005F0100085F0100085F0100085F01000810
:100050005F0100085F0100085F0100085F01000800
:100060005F0100085F0100085F0100085F010008F0
:100070005F0100085F0100085F0100085F010008E0
:100080005F0100085F0100085F0100085F010008D0
:100090005F0100085F0100085F0100085F010008C0
:1000A0005F0100085F0100085F0100085F010008B0
:1000B0005F0100085F0100085F0100085F010008A0
:1000C0005F0100085F0100085F0100085F01000890
:1000D0005F0100085F0100085F0100086518000863
:1000E0005F0100085F0100085F0100085F01000870
:1000F0005F0100085F0100085F0100085F01000860
:100100005F0100085F0100085F0100085F0100084F
:100110005F0100085F010008D11400085F010008BA
:100120005F0100085F0100085F0100085F0100082F
:10013000DFF80CD000F06CF800480047A524000858
:10014000380700200648804706480047FEE7FEE7DC
:10015000FEE7FEE7FEE7FEE7FEE7FEE7FEE7FEE777
:100160008914000831010008202A04DB203A21FA12
:1001700002F00021704721FA02F3D040C2F12002C0
:10018000914008431946704740EA01039B0703D09A
:1001900009E008C9121F08C0042AFAD203E011F8C6
:1001A000013B00F8013B521EF9D270472DE9F05F88
:1001B0000546002092469B468846064681464024D6
:1001C0001BE02846414647462246FFF7CDFF5346EF
:1001D0005A46C01A914110D311461846224600F0E3
:1001E00029F82D1A67EB01084F462246012000210D
:1001F00000F020F817EB00094E41201EA4F1010485
:10020000DFDC484631462A464346BDE8F09F000001
:10021000064C074D06E0E06840F0010394E8070053
:1002200098471034AC42F6D3FFF786FFD82B00086E
:10023000F82B0008202A04DB203A00FA02F1002003
:1002400070479140C2F1200320FA03F31943904014
:100250007047FEE7704700002DE9F05F90F821102D
:100260000024022903D004218163012485E0016870
:100270000A6822F00E020A6001680A6822F0010290
:100280000A603F4E3E4FB215DFF8F4C0DFF8F09041
:10029000DFF8ECA0DFF8E8B0DFF8E4E00168783FD1
:1002A00013011502ACF1640CA9F15009AAF13C0A42
:1002B000ABF1280BAEF1140E4FF48018B14227D9E0
:1002C000B9420ED0614512D049451DD0514518D0D4
:1002D000594518D0714501D1424615E0294EB14229
:1002E00001D1012210E0274E1436B14201D1102273
:1002F0000AE0244E2836B14206D0224A3C329142CE
:1003000001D11A4600E02A461E49091F0A602BE067
:10031000B94213D0614517D0494522D051451DD06F
:1003200059451DD0714501D142461AE0B14202D172
:100330004FF0807215E0134EB14201D1012210E05E
:10034000104E1436B14201D110220AE00D4E28366B
:10035000B14206D00B4A3C32914201D11A4600E02C
:100360002A46074980394A60012180F8211000217E
:1003700080F82010416B01B188472046BDE8F09F0E
:1003800080000240080402402DE9F84FDFF8B8A1D0
:1003900000220AF1040B144601274FF00F090BF15C
:1003A000040E00BF0B6807FA04F52B40AB4274D172
:1003B000DFF898C14E68A6EB0C0866452BD00DDC23
:1003C000032E34D005DC36B3012E19D0022E2FD1E6
:1003D0001BE0112E16D0122E2AD119E0B8F5881F75
:1003E00019D006DCB8F5803F15D0B8F5801F1FD1B5
:1003F00011E0B8F5001F0ED0B8F5041F18D10AE0BF
:10040000CA6815E0CA68121D12E0CA6808320FE017
:10041000CA680C320CE08A682AB1012A4FF008023F
:1004200003D0456104E0042202E0056100E00022FF
:10043000FF2B01D8064601E000F104064FEA8405CF
:1004400001D9A5F12005D6F800C009FA05F82CEA73
:10045000080C02FA05F54CEA050CC6F800C04D6818
:10046000ED006AD53A4DAE6946F00106AE61AD6960
:1004700024F0030605F001050095364D06EB050C4A
:10048000DCF80850A6074FEA167809FA08F6B543D3
:10049000314EB04202D100261AE04EE02F4EB0425B
:1004A00001D1012614E02E4EB04201D102260FE008
:1004B0002C4EB04201D103260AE02B4EB04201D1AE
:1004C000042605E0294EB04201D1052600E00626AB
:1004D00006FA08F62E43CCF808604D68DAF800609A
:1004E000ED03554601D51E4300E09E432E604D6846
:1004F000AD0305D5DBF800601E43CBF8006004E0D7
:10050000DBF800509D43CBF800504D68DEF80060EA
:10051000ED02754601D51E4300E09E432E604D68F6
:10052000AD0205D5084D0C352E681E432E6004E043
:10053000054E0C3635689D433560641C102CFFF465
:1005400031AFBDE8F88F0000000401400000111039
:10055000001002400000014000080140000C014072
:10056000001001400014014000180140001C01402F
:100570000AB1016170470904FBE700000148806887
:1005800070470000DC0000200248816802781144B6
:1005900081607047DC000020074810B5016841F019
:1005A00010010160032000F0A7F8002000F006F819
:1005B00000F024F8002010BD0020024070B50D4D61
:1005C00004464FF47A712878B1FBF0F00A490968C3
:1005D000B1FBF0F000F037FB48B9102C07D2002235
:1005E0002146501E00F068F800206C6070BD0120AC
:1005F00070BD0000DC000020E8000020214808B5A4
:10060000816941F001018161816901F0010100917D
:10061000C16941F08051C161C06900F08050009013
:10062000032000F069F8002211466FF00B0000F083
:1006300043F8002211466FF00A0000F03DF8002256
:1006400011466FF0090000F037F800221146501FE4
:1006500000F032F800221146101F00F02DF80022A1
:100660001146901E00F028F800221146501E00F09E
:1006700023F80548416821F0E06141F08061416064
:1006800008BD0000001002400000014000F01F0201
:10069000012191404009800000F1E020C0F8801263
:1006A000704700F01F02012191404009800000F1D5
:1006B000E020C0F800117047F0B40E4B1B680C46E8
:1006C000C3F30223C3F10705042D00D90425191D26
:1006D000072901D2002300E0DB1E012606FA05F1FE
:1006E000491E214099409E40761E16403143F0BC81
:1006F00000F07CBE0CED00E0064900F0070208683F
:100700004FF6FF03184040EA0220034A10430860F6
:10071000704700000CED00E00000FA052DE9F047FD
:10072000DFF83C8105460E46D8F8000000F00700CF
:10073000B0420CD2D8F8001021F007013143C8F8BC
:100740000010D8F8000000F00700B04263D128780C
:10075000444C800705D56068A96820F0F000084384
:1007600060602878C00745D06868012816D02168E5
:10077000022816D0890700294DDA616821F00301AB
:1007800001436160FFF7FAFE6968074641F288306D
:1007900001290FD00229814619D027E02168890359
:1007A000E9E78901E7E700BFFFF7E8FEC11B49451C
:1007B00001D918E081466068C0F381000128F3D1B7
:1007C00018E000BFFFF7DAFEC11B49450BD860688F
:1007D000C0F381000228F5D10CE000BFFFF7CEFE88
:1007E000C11B494502D90320BDE8F087606810F0BD
:1007F0000C0FF3D1D8F80010404601F00701B142C8
:100800000BD9016821F0070131430160006800F055
:100810000700B04201D00120E6E72878400705D55F
:100820006068E96820F4E0600843606028780007A9
:1008300006D56068296920F4605040EAC100606014
:1008400000F03CF86168084AC1F30311515CC840EC
:10085000064908600020FFF7B1FE0020C4E7000051
:100860000020024000100240C02B0008E8000020D9
:100870000148006870470000E8000020044805496E
:1008800000684968044AC1F30221515CC8407047BE
:10089000E800002000100240D02B00080448054961
:1008A00000684968044AC1F3C221515CC8407047DE
:1008B000E800002000100240D02B000812A185B0F3
:1008C0000FC98DE80F0014A0144A00680490516805
:1008D000134801F00C03042B10D0082B0ED1C1F3E8
:1008E0008343C9031DF803000AD5516804AAC1F364
:1008F0004041515C0A4A5043B0FBF1F005B07047EB
:1009000008494843FAE700000203040506070809FE
:100910000A0B0C0D0E0F1010010200000010024017
:1009200000127A0000093D002DE9F84F04460078D6
:10093000B94DC00748D06868C0F38100012807D0CE
:100940006868C0F38100022809D16868C00306D531
:100950002868800338D5606800286FD034E060686C
:10096000B0F5803F0BD010B1B0F5A02F11D02868A2
:1009700020F480302860286820F4802002E0286875
:1009800040F480302860606888B1FFF7F7FD0646C4
:1009900009E0286840F480202860F0E7FFF7EEFDCA
:1009A000801B642875D828688003F7D50CE0FFF712
:1009B000E5FD064605E000BFFFF7E0FD801B64286B
:1009C000F0D828688003F7D42078944E80074FF041
:1009D00001094FF000083BD5686810F00C0F07D0F4
:1009E0006868C0F38100022809D16868C00306D492
:1009F0002868800714D5206901281FD110E02069DC
:100A0000B0B1C6F80090FFF7B9FD074605E000BF9A
:100A1000FFF7B4FDC01B0228C4D828688007F7D5AB
:100A20002868616920F0F80040EAC10028600FE002
:100A3000C6F80080FFF7A2FD074606E0E9E000BF28
:100A4000FFF79CFDC01B022823D828688007F7D435
:100A5000207800072CD57248A169D9B1C0F8009060
:100A6000FFF78CFD074604E0FFF788FDC01B022856
:100A70000FD8686A8007F7D56A484FF4FA510068C2
:100A8000B0FBF1F0009000BF0098411E0091FAD237
:100A90000EE080E0C0F80080FFF770FD074604E03C
:100AA000FFF76CFDC01B022875D8686A8007F7D471
:100AB0002078400760D5E8690027C00008D4E869BD
:100AC00040F08050E861E869012700F08050009014
:100AD00055480168C90513D40168834641F4807103
:100AE0000160FFF74BFD824606E000BFFFF746FDC1
:100AF000A0EB0A0064284ED8DBF80000C005F5D54D
:100B0000E06801280AD008B1052813D0286A20F02F
:100B100001002862286A20F0040002E0286A40F000
:100B200001002862E06841F2883B98B1FFF726FD9A
:100B300082460BE0286A40F004002862EEE700BF1E
:100B4000FFF71CFDA0EB0A0159455AD8286A800717
:100B5000F6D50CE0FFF712FD824605E0FFF70EFD2B
:100B6000A0EB0A0159454CD8286A8007F6D41FB17A
:100B7000E86920F08050E861E06988B36968C1F3F2
:100B80008101022945D00228C6F8608004D0FFF711
:100B9000F5FC044638E034E0FFF7F0FC074604E0DB
:100BA000FFF7ECFCC01B02282BD828688001F7D483
:100BB000206AB0F5803F05D16868A16820F4003054
:100BC00008436860D4E908010843696821F4741196
:100BD00008436860C6F86090FFF7D0FC044606E062
:100BE00015E000BFFFF7CAFC001B022809D82868DF
:100BF0008001F7D50BE000BFFFF7C0FC001B022807
:100C000002D90320BDE8F88F28688001F4D40020C1
:100C1000F8E70120F6E70000001002400000424221
:100C200080044242E8000020007000404FF0E021C4
:100C30000428086903D020F004000861704740F0E0
:100C40000400FAE7704710B5401EB0F1807F01D371
:100C5000012010BD4FF0E02460610F21601700F00B
:100C6000C5FB0020A06107202061002010BD10B549
:100C7000FFF7E8FF10BD7047704730B590F83C2093
:100C8000012A20D0012280F83C20022380F83D3048
:100C900003685C6824F070045C6003685C680D683D
:100CA0002C435C6003689C6824F080049C600368AB
:100CB0009C6849680C439C6080F83D20002180F8C6
:100CC0003C10084630BD022030BD10B5040003D0F2
:100CD00094F83D0010B107E0012010BD002084F819
:100CE0003C00204600F00CF8022084F83D00211D55
:100CF000206800F0F3FB012084F83D00002010BDC7
:100D000008B500680B49884212D10B48C16941F00F
:100D10001001C161C069002200F01000009011466E
:100D20003620FFF7C9FCBDE808403620FFF7B9BC04
:100D300008BD000000100040001002400168CA68B1
:100D400042F00102CA600068016841F001010160DF
:100D5000002070470168CA6822F00102CA6000687A
:100D6000016A41F21112114207D1016A9210114237
:100D700003D1016821F00101016000207047704734
:100D800070B50446006801694FF00005C943890742
:100D900015D4C168C943890711D4E91E0161012036
:100DA0002077206880698007204602D0FFF7E7FFA0
:100DB00004E000F098F8204600F096F825772068C7
:100DC0000169C943490717D4C168C943490713D406
:100DD0006FF004010161022020772068806910F41F
:100DE000407F204602D0FFF7CAFF04E000F07BF806
:100DF000204600F079F8257720680169C943090782
:100E000016D4C168C943090712D46FF00801016103
:100E1000042020772068C0698007204602D0FFF7B1
:100E2000AEFF04E000F05FF8204600F05DF82577A3
:100E300020680169C943C90617D4C168C943C906F6
:100E400013D46FF010010161082020772068C06979
:100E500010F4407F204602D0FFF791FF04E000F03D
:100E600042F8204600F040F8257720680169C94320
:100E7000C90708D1C168C943C90704D1891E0161E6
:100E8000204600F033F820680169C943090609D4F7
:100E9000C168C943090605D46FF08001016120468D
:100EA000FFF7E9FE20680169C943490609D4C16812
:100EB000C943490605D46FF040010161204600F0A6
:100EC00021F820680169C94389060BD4C168C94368
:100ED000890607D46FF0200101612046BDE870400B
:100EE000FFF7CABE70BD7047704700000068034935
:100EF000884202D102480068004770470010004055
:100F0000340000207047704770B5026804461068CE
:100F1000D168536910F00F0F50D003F0010501F4B0
:100F2000907635435DD0C20705D0CA0503D5E26B84
:100F300042F00102E263420705D5DA0703D0E26B13
:100F400042F00202E263820705D5DA0703D0E26BC2
:100F500042F00402E263020705D5DA0703D0E26B30
:100F600042F00802E263E26B002A33D0800604D527
:100F7000880602D5204600F00DFB20684069E16B31
:100F8000C0F38010090700D428B3204600F0F4FA1B
:100F90002068416949061AD5416921F04001416143
:100FA000606BA0B11B494163606BFFF755F90028E6
:100FB00010D0606B416BBDE870400847830610D5C8
:100FC0008B060ED52046BDE8704000F0E3BA2046FF
:100FD000FFF799FF70BD2046FFF795FF0020E06303
:100FE00070BD030606D50B0604D52046BDE870404B
:100FF00000F0D4BB4006F3D54806F1D5D1682046B1
:1010000021F04001D160202184F8391000F044F92A
:1010100070BD00006915000870B5040004D094F894
:101020003900002510B106E0012070BD84F8385069
:10103000204600F023F8242084F839002068C16895
:1010400021F40051C160204600F0F0FA20680169E7
:1010500021F4904101612068416921F02A01416138
:101060002068C16841F40051C160E563202084F824
:10107000390084F83A00002070BD000070B50368A4
:101080002448234E002402210322051586B0B342D2
:1010900019D1836943F48043836180691E4E00F453
:1010A000804004900802CDE9000103926946304671
:1010B000FFF76AF9CDE90054694630460294FFF71C
:1010C00063F906B070BD154EB342FAD1C36943F45B
:1010D0008023C361C069CDE9005100F48020CDE9CF
:1010E00003200F4D69462846FFF74EF9E814CDE975
:1010F0000004694628460294FFF746F9002211468B
:101100002720FFF7D9FA2720FFF7CBFAD9E700000D
:101110000038014000100240000801400048004033
:10112000000C01402DE9F843044690F83A00994636
:1011300016460D4620284FD195B18EB194F838004F
:10114000012849D0012084F838000027E7632220D5
:1011500084F83A00FFF712FAA6858046E68531E06A
:101160000120BDE8F883E08D401EE085A06843467D
:10117000B0F5805F4FF000024FF020012046CDF81F
:10118000009004D000F03BFB98B10320E9E700F0A9
:1011900036FB0028F9D1206900282068406803D078
:1011A000C1B225F8011B0DE0C0F3080125F8021BB0
:1011B00008E0206900282068406801D000F07F0026
:1011C00005F8010BE08D0028CDD1202084F83A00ED
:1011D00084F838700020C4E70220C2E770472DE988
:1011E000F843044690F839001F4616460D4620285D
:1011F00050D1A5B19EB194F8380001284AD0012001
:1012000084F838004FF00008C4F83C80212084F8AE
:101210003900FFF7B3F9A6848146E68426E0012071
:10122000BDE8F883E08C401EE084A0684B46B0F532
:10123000805F4FF000024FF080012046009703D0FE
:1012400000F0DDFAE8B90DE000F0D9FAC8B9288855
:101250002168C0F308004860206908B16D1C05E0F2
:10126000AD1C03E0216815F8010B4860E08C0028F4
:10127000D8D14B46002240212046009700F0BFFA0B
:1012800008B10320CCE7202084F8390084F83880A6
:101290000020C5E70220C3E77047FEE7134810B5FA
:1012A000816986B041F008018161816901F008011E
:1012B0000491816941F00401816180690C4C00F066
:1012C00004000490002223212046FFF751F9232037
:1012D00000900120019000200290022003906946B6
:1012E0002046FFF751F806B010BD00000010024084
:1012F000000C01401CB511480F490024016041F663
:101300001F41C0E9011440F6C3118461C160FFF7B9
:10131000DCFC18B13D210AA000F0BDFA009469463A
:1013200006480194FFF7A9FC002803D0442104A03B
:1013300000F0B1FA1CBD0000001000407402002053
:101340002E2E2F5372632F74696D2E6300000000E0
:101350000D4810B50B4901604FF416514160002152
:1013600081600C22C160C0E904128161C161FFF794
:1013700053FE002805D0BDE81040432103A000F033
:101380008ABA10BD00380140B40200202E2E2F531F
:1013900072632F75736172742E6300000D4810B56F
:1013A0000B4901604FF416514160002181600C220D
:1013B000C160C0E904128161C161FFF72DFE002800
:1013C00005D0BDE81040562103A000F064BA10BD5E
:1013D00000480040F40200202E2E2F5372632F7518
:1013E000736172742E630000FEE770470907090EEF
:1013F000002806DA00F00F0000F1E02080F8141D4C
:10140000704700F1E02080F8001470477047704783
:1014100010B5FFF7B9F8BDE81040FFF728BC30B5AC
:101420008FB001210804CDE90010002402940225A8
:101430000491CDE907504FF4E01009906846FFF79A
:1014400073FA00B1FEE70F20CDE90A054FF4806082
:10145000CDE90C4002210AA80E94FFF75FF900B114
:10146000FEE7FFF705FA4FF47A71B0FBF1F0FFF7F2
:10147000EAFB0420FFF7DAFB00221146501EFFF7BB
:101480001BF90FB030BD00000D48016841F00101AB
:10149000016041680B4A1140416001680A4A1140ED
:1014A0000160016821F480210160416821F4FE019E
:1014B00041604FF41F0181600449C0030860704718
:1014C000001002400000FFF8FFFFF6FE08ED00E00C
:1014D0000148FFF755BC000074020020F0B5026817
:1014E0001C4B1D4D1D4E1E4F1E4C4FF0804C984204
:1014F00009D0A04207D0604505D0A84203D0B04231
:1015000001D0B84204D122F0700E4A6842EA0E02BD
:10151000984209D0A04207D0604505D0A84203D028
:10152000B04201D0B84203D122F44075CA682A43C0
:1015300022F080054A692A4302608A68C2620A680A
:101540008262984201D0A04201D109690163012160
:101550004161F0BD002C0140000400400008004043
:10156000000C00400034014010B5406A0021C185E4
:10157000C184FFF7C8FC10BD0168CA6822F49072EC
:10158000CA6001684A6922F001024A61202180F89C
:101590003A10704710B590F83A10222901D0022075
:1015A00010BD8168B1F5805F11D001690029016823
:1015B0001FD0496801F07F03816A4A1C82620B7068
:1015C000C18D491E0904090CC18518D02BE00269A0
:1015D000816A002A0268526805D0D2B20A80816A04
:1015E000491C8162ECE7C2F308020A80816A891C07
:1015F000F7E74A68816A4B1C83620A70E0E701687A
:10160000CA6822F02002CA600168CA6822F48072A7
:10161000CA6001684A6922F001024A61202180F80B
:101620003A10FFF7DBFD002010BD00002DE9F0416E
:10163000044600680169E26821F4405111430161E8
:101640002169A0680843616908432168CA6841F2BA
:101650000C639A430243CA6020684169A26921F47D
:101660004071114341614C4920686425322688420B
:101670003CD1FFF713F900EBC00101EB00106168EA
:101680008900B0FBF1F7FFF709F900EBC00101EBAE
:1016900000106168B0468900B0FBF1F0B0FBF5F0D6
:1016A0006FF01801484307EB800106EB0110B0FB17
:1016B000F5F000F0F006FFF7F1F800EBC00101EBE8
:1016C000001061688900B0FBF1F0B0FBF5F006EBAB
:1016D0000016FFF7E3F800EBC00101EB00106168B2
:1016E0008900B0FBF1F7FFF7D9F83BE0FFF7C6F848
:1016F00000EBC00101EB001061688900B0FBF1F75D
:10170000FFF7BCF800EBC00101EB00106168B046C8
:101710008900B0FBF1F0B0FBF5F06FF01801484321
:1017200007EB800106EB0110B0FBF5F000F0F006CE
:10173000FFF7A4F800EBC00101EB0010616889001D
:10174000B0FBF1F0B0FBF5F006EB0016FFF796F8F2
:1017500000EBC00101EB001061688900B0FBF1F7FC
:10176000FFF78CF800EBC00101EB00106168890005
:10177000B0FBF1F0B0FBF5F06FF01801484307EB58
:10178000800108EB0110B0FBF5F0216800F00F00BC
:1017900030448860BDE8F0810038014090F839108D
:1017A000212901D0022070478168B1F5805F016A6C
:1017B0000BD04A1C0262026809785160C18C491E34
:1017C0000904090CC1840ED017E009880268C1F32E
:1017D0000801516001690029016A02D0491C0162B7
:1017E000ECE7891CFBE70168CA6822F08002CA6046
:1017F0000068C16841F04001C160002070472DE9D8
:10180000F041984617460E460446069D1DE0681CAA
:101810001BD02DB1FEF7B2FEA0EB0800A84214D9F0
:101820002068C16821F4D071C1602068416921F04D
:1018300001014161202084F8390084F83A00002039
:1018400084F838000320BDE8F0812068006836EA9B
:10185000000004D00020B842D9D00020F3E70120D6
:10186000F9E7000010B50A4C2068C068800601D571
:1018700000F0B0FE2068C068000601D500F0B0FEA0
:101880002720FEF703FFBDE810400148FFF73CBBEF
:10189000F4020020FEE7FEE70FB4054B10B503A9E4
:1018A000044A029800F018F810BC5DF814FB000020
:1018B0008D240008EC00002002E008C8121F08C1B7
:1018C000002AFAD170477047002001E001C1121FC1
:1018D000002AFBD1704700002DE9FF4F8DB09B46D9
:1018E0000F460446002606E025280BD05A460F99DD
:1018F0009047641C761C20780028F5D111B0304642
:10190000BDE8F08F0025A8460122984900E0054374
:1019100014F8013F203B02FA03F00842F7D1207887
:101920002E2817D114F8010F45F004052A280ED0EF
:101930006FF02F022078A0F1300109290AD808EBB6
:10194000880102EB410100EB0108641CF2E757F843
:10195000048B641C20786C280DD004DC4C2812D039
:101960006A2811D104E074280DD07A280CD10AE03D
:1019700045F4001507E0617845F48015814202D1F5
:10198000641C05F58015641C2278692A45D008DCA2
:10199000002AB3D0582A69D0632A10D0642A08D10B
:1019A0003BE0702A67D0732A13D0752A5CD0782A5E
:1019B0005CD010465A460F999047761CD3E017F832
:1019C000040B8DF8000000208DF80100E94601208D
:1019D00003E057F8049B4FF0FF3069074FF0000514
:1019E00001D40AE06D1C45450DDA8542FADB19F891
:1019F00005100029F6D106E06D1C8542FCDB19F8C4
:101A000005100029F8D12E4404E019F8010B5A46BC
:101A10000F9990476D1EF8D2A5E00A200021CDE96C
:101A20000801C5F3025002280DD001CFC117031ED3
:101A300071F100030DDA4FF0000CD0EB0C006CEBF1
:101A400001012D2308E0FF1D27F00707F7E8020139
:101A5000EDE72B0504D52B238DF8283001233BE03F
:101A6000EB0739D02023F7E70A2000E010200021FF
:101A7000CDE9080107E01020002145F00405CDE97B
:101A800008014FF00808C5F3025002280FD001CF1B
:101A900000214FF0000A2B071FD5702A0DD0DDE979
:101AA00008C38CF0100C5CEA030C0CD015E0FF1D91
:101AB00027F00707F7E80201EBE740228DF828201E
:101AC0004FF0010A0BE050EA010306D030238DF8F5
:101AD00028308DF8292002239A46582A04D024A2BF
:101AE0000DF120090B9209E026A2F9E7DDE90823B0
:101AF000FEF75CFB0B9B9B5C09F8013D50EA010281
:101B0000F4D1ADEB090020300890680701D44FF004
:101B100001080899884502DDA8EB010000E00020DB
:101B20008046002506E00AA85A46405D0F99904776
:101B30006D1C761C5545F6DB04E030205A460F99A3
:101B40009047761CB8F10001A8F10108F5DC05E02A
:101B500019F8010B5A460F999047761C0899481EB0
:101B600008900029F4DC641CC5E600000928010087
:101B70003031323334353637383961626364656603
:101B800000000000303132333435363738394142C5
:101B9000434445460000000070B50A4D0846002445
:101BA0000A211646E9700722314600F075FE012829
:101BB00005D144F6206000F07FFE012800D0032408
:101BC000204670BDBC0000202DE9F0410F4C0746B7
:101BD0001646A08888460025FF2801D9AFF300806B
:101BE000A088032804D3A188A06800F0E7FC18B1FE
:101BF00005252846BDE8F081A06810F8011B397062
:101C0000A188891E3180C8F80000F2E7BC000020DE
:101C100070B5104C03460025607810B105252846A4
:101C200070BD491E0126E1600846E6800B70E18820
:101C30001144E180E18800F0C1FC0146E088A2681F
:101C40000244401CE080117026700121002000F049
:101C5000E3FCE4E7BC00002010B50021012000F007
:101C6000DBFC034900204870BDE8104000F0FEBDD9
:101C7000BC00002010B50021084600F0CDFCBDE8F6
:101C8000104000F0E1BC000070B5064D002428783B
:101C9000012802D00624204670BD28698047002014
:101CA0002870F8E70C00002070B50C460988002564
:101CB00005292FD1417840F2CF760A02817811436D
:101CC000C278491C1302027989B21A43531EB342E7
:101CD00020D200232380012300F8013B2688761CB4
:101CE0002680560703D003EBD203DEB201E0C2F335
:101CF000C70600F8016B23885B1C2380002300F0DB
:101D00000AFB18B100F040FC054604E0208830448E
:101D1000208000E00325284670BD70B50C46098878
:101D2000002505292FD1417840F2CF760A0281782B
:101D30001143C278491C1302027989B21A43531E17
:101D4000B34220D200232380022300F8013B2388E2
:101D50005B1C2380530704D0012303EBD203DEB2C4
:101D600001E0C2F3C70600F8016B23885B1C2380E7
:101D700000F0D3FA18B100F007FC054604E0208813
:101D80003044208000E00325284670BD70B50C4625
:101D900009880026052925D1417805790A0281782C
:101DA0001143491C6A1E89B27C2A1BD8002222805A
:101DB000032200F8012B22880023521C22806A0093
:101DC00000F8012B2288521C22802A4600F0A8FA33
:101DD00018B100F0D9FB064605E0208800EB45006D
:101DE000208000E00326304670BD70B50C4609889F
:101DF0000026052927D1417805790A028178114307
:101E0000C278491C45EA02256A1E89B27C2A1AD288
:101E100000222280042200F8012B2288521C2280FA
:101E20006A0000F8012B2288521C22802A4600F00A
:101E300009FB18B100F0A8FB064605E0208800EB7E
:101E40004500208000E00326304670BD2DE9F041BA
:101E50000446088800270D460A2842D36078267970
:101E60000102A078227A0843401C1FFA80F8E0782B
:101E700046EA00266079731E0102A0790843401CDF
:101E800081B2E0797C2B42EA0022607A28D83AB30A
:101E9000792A25D8B0EB420F22D1012304F10A00A0
:101EA00000F03EFA98B90021298017212170298875
:101EB000601C491C2980710000F8011B298800233F
:101EC000491C29803246414600F02AFA18B100F038
:101ED0005BFB074605E0288800EB4600288000E011
:101EE00003273846BDE8F08170B5064C0D4606491B
:101EF0002288401CFEF748F92088401C28800020DA
:101F000070BD0000B8000020F001002038B509883D
:101F1000002405290BD141780A0281781143491C1C
:101F2000027989B21AB9C278FF2A03D012B1032408
:101F3000204638BD00228DF80120C078FF280CD043
:101F40008DF8002001231A46684600F0E4F90028C5
:101F5000EED000F019FB0446EAE701208DF80000FE
:101F6000F0E710B509880024052902D00324204693
:101F700010BD417801230A028178C01C1143491C1D
:101F800089B21A4600F0CCF90028F0D000F0FCFA33
:101F90000446ECE72DE9F0410D46098800240529A7
:101FA00026D9417843790A0281781143491C8EB2BF
:101FB000C178027942EA0122510704D0012101EBE4
:101FC000D201C9B201E0C2F3C701571EB7F5F66FDF
:101FD0000ED299420CD101233146801D00F09BF9AD
:101FE00018B100F0D1FA044603E00520288000E093
:101FF00003242046BDE8F08170B50D460988002411
:1020000006291DD341780A0281781143C278491C00
:102010001302027989B21A434379561E772E0FD8DC
:102020005606360E9E420BD10123801D00F078F932
:1020300018B100F0A9FA044603E00520288000E06A
:102040000324204670BD00002DE9F0411D46069B8B
:102050001746064641B1F72906D81E4C084621719D
:1020600000211EB1012E15D002252EE01A4A226150
:102070001A4A62611A4AE2601A4AC4E906211A49F8
:1020800021621A4961621A49A1622A46394600F062
:10209000B9F812E0174A2261174A6261174AE260F2
:1020A000174AC4E906211749216217496162174995
:1020B000A1622A463946FFF76FFD050005D100F001
:1020C000CDFB28B16671012020702846BDE8F08163
:1020D0000325FAE70C000020E92200080523000888
:1020E0009122000841220008BD2800086529000847
:1020F00025290008591C0008751C0008111C00083F
:10210000C91B0008812600089527000865270008DC
:10211000F8B5304C207808B10620F8BD684600F0CC
:102120008FFB012853D19DF8000000284FD00128D3
:1021300002D002284BD111E0264AA369921D911CBE
:10214000C81F9847002842D160782179884201D081
:1021500000283CD1022000F089FB38E0A068012172
:102160001C4E0078A0700025E1702C3616F8351052
:1021700079B181420AD100F0D3F906EBC5001549C7
:102180004268891DA0689047E07002E06D1C102D28
:10219000ECDB6078D8B1E078A0B10020E080A178D5
:1021A000A26841F080001070E0888022401CE0802E
:1021B00009A0FFF771FBE288A168E0788854E08805
:1021C000401CE080D4E90213E2882079984700207F
:1021D000F8BD00000C000020756346756E637469DD
:1021E0006F6E436F6465206973202578204D425FD0
:1021F00046554E435F4552524F5220697320257811
:102200000000000070B51546084600240822294643
:1022100000F042FB01280DD1B5F5964F01D92320DE
:1022200003E006496800B1FBF0F080B200F044FB27
:10223000012800D00324204670BD0000A07F1700B5
:102240002DE9F041104C07461646A0888846002527
:10225000FF2801D9AFF30080A088042804D3A18807
:102260000A4800F0C3F918B105252846BDE8F081F9
:10227000064800783870A088C01E30800348401C93
:10228000C8F80000F1E7000000000020F000002086
:1022900070B5134C034600256078012802D005254F
:1022A000284670BD491E0126A160084666800B7055
:1022B000618811446180618800F098F96188094A59
:1022C0005318491C61801870010A60880244401C40
:1022D0006080117026700121002000F09DF9DFE779
:1022E00000000020F0000020054910B500204870D3
:1022F0000146012000F090F9BDE8104000F0B2B9AD
:102300000000002010B50021084600F085F9BDE866
:10231000104000F099B9012070470120704700007B
:102320002DE9F0470446002708B215460E4601285D
:1023300049D47019401E322845DC2548711E418061
:102340002449DBB1012B3FD138E000BFB8F90200CE
:102350006D1EADB239F810301B0A04F8013B19F8B4
:10236000102004F8012B401CA8F8020000F0BEF871
:102370002A46314618A0FFF78FFA01E080468946C9
:10238000002DE3D120E000BF14F8010B6D1E030205
:10239000B9F90200ADB228F8103014F801CB43EAC5
:1023A0000C0328F81030401CA9F8020000F0B8F81F
:1023B0002A46314615A0FFF76FFA01E081468846AC
:1023C000002DE1D100E001273846BDE8F08700008C
:1023D000CE000020100200207265616420654D422D
:1023E000526567486F6C64696E674342207573413C
:1023F0006464726573732069732025642C75734E51
:10240000526567732069732025640A0077726974C6
:102410006520654D42526567486F6C64696E67431D
:10242000422075734164647265737320697320255B
:10243000642C75734E526567732069732025640A96
:102440000000000030B50023B1F57A7F19D38C1855
:10245000B4F57B7F15D80C4C2488091B0A4C241D2D
:102460000CE000BF34F81150521E2D0A00F8015B39
:1024700014F8115000F8015B92B2491C002AF1D106
:1024800000E00123184630BDCE00002013B5012323
:102490001A4669460248FEF7A2FE00981CBD0000DD
:1024A000B402002008B5FEF777F8FEF7B8FFFEF794
:1024B000F5FEFEF773FFFEF71DFFFEF749FF002252
:1024C0000121134610460092FFF7BEFDFFF7DCFB2B
:1024D00000F040F803A0FFF7DFF900BFFFF718FE98
:1024E000FCE70000737461727400000010B50B4CBF
:1024F000012202212046FEF73BF801221146204628
:10250000FEF736F8012220212046FEF731F820465A
:102510000022BDE810400221FEF72AB8000C01405D
:1025200010B50B4C012202212046FEF721F80122B2
:1025300011462046FEF71CF8012220212046FEF716
:1025400017F820460022BDE810400121FEF710B820
:10255000000C014010B50B4C012202212046FEF771
:1025600007F8012211462046FEF702F80122202139
:102570002046FDF7FDFF20460022BDE81040202147
:10258000FDF7F6BF000C0140002804D0012803D05D
:10259000072803D0042070470220704706207047A8
:1025A00010B5092801D8303004E0A0F10A0105294E
:1025B00002D83730C0B210BDAFF30080002203E074
:1025C00010F8013B1A44D2B2491E89B2F8D25042E7
:1025D000C0B2704701480068004700002C0000208E
:1025E00001480068004700003000002070B5094D28
:1025F000FF231A4605F5807606E000BF10F8014B70
:1026000054402A5D5A40335D491E89B2F6D242EAEF
:10261000032070BDC02900080A4B00281A68D06842
:1026200002D040F0200001E020F02000D0601868C7
:102630000029C16802D041F0800101E021F0800151
:10264000C1607047F402002010B50548FEF782FB18
:1026500003480021026851620068891E016110BDB3
:102660007402002005486FF00101026811610068E2
:10267000002141620148FEF761BB000074020020A6
:10268000F8B5374C0027207808B1AFF300806846D2
:1026900000F0F4F860780025012670B3012802D01C
:1026A00002285AD139E0FFF7DDFF9DF800003A28F3
:1026B00007D00D2808D0A0F13001092907D8C8B2E9
:1026C0000DE0A570A58048E00220607045E0A0F113
:1026D0004101052902D83738C0B200E0FF20A178B7
:1026E00011B1012939D10DE0A188FF2906D8A288AE
:1026F000A16800018854A6702FE025E06570FFF7FF
:10270000A3FF2AE0A288A16811440A7802430A7054
:10271000A088401CA080A5701FE09DF80000E17813
:10272000884207D1FFF790FF6570012000F09EF806
:10273000074612E03A2801D065700EE0A570A5802A
:102740006670FFF78FFF08E09DF800003A2804D17B
:10275000FFF788FFA580A57066703846F8BD0000B9
:10276000BC0000200A4810B54178012909D002298F
:1027700007D04178012906D04078022803D0AFF372
:10278000008000214170FFF75FFF002010BD0000B6
:10279000BC00002070B5294C0026607808B1AFF36A
:1027A000008020780025052846D2DFE800F04103AC
:1027B0000A3136003A2000F071F802202070A5702E
:1027C0003AE0E088F0B1A1781C48C06811B1012955
:1027D00032D108E000780009FFF7E2FE00F05EF871
:1027E0000120A07028E0007800F00F00FFF7D8FE6D
:1027F00000F054F8E068401CE060A570E088401EDE
:10280000E08019E00D2000F049F80320207013E06B
:10281000E07800F043F80420F8E72570032000F08A
:1028200025F8064600210120FFF7F6FE257003E09B
:1028300000210120FFF7F0FE304670BDBC000020F3
:102840000549024600204B78002B04D00878107010
:102850000020487001207047CC0000200249002071
:102860004870012070470000CC000020024901227E
:102870004A70087010467047CC00002010B5012344
:1028800001461A460348FEF74DFC08B1002010BD72
:10289000012010BDF40200200120704701B5012382
:1028A0001A4669460348FEF79AFC08B1002008BDA5
:1028B000012008BDF40200200120704738B5174CF4
:1028C0000025207808B1AFF300806846FFF7D6FFF7
:1028D000607830B1124A012807D0022810D00328AE
:1028E00001D1FFF7BFFE284638BD0020A0809DF82B
:1028F0000000A1880A44491CA180107002200BE04E
:10290000A088FF2807D89DF80010A0880244401C2A
:10291000A0801170E5E703206070E2E7000000206E
:10292000F000002070B50E4D0024687870B10228C8
:102930000BD003280DD0687858B16878022808D0E9
:102940006878032805D0AFF300800120FFF78EFFE1
:102950000446FFF779FE01206870204670BD000034
:102960000000002070B5154C00256078012801D0CA
:10297000AFF30080207810B101281CD104E00021C1
:102980000120FFF749FE16E0608850B1A06800788A
:10299000FFF784FFA068401CA0606088401E608034
:1029A00009E00320FFF762FF054600210120FFF741
:1029B00033FE00202070284670BD0000000000207B
:1029C00000C1814001C0804101C0804100C18140FF
:1029D00001C0804100C1814000C1814001C08041EF
:1029E00001C0804100C1814000C1814001C08041DF
:1029F00000C1814001C0804101C0804100C18140CF
:102A000001C0804100C1814000C1814001C08041BE
:102A100000C1814001C0804101C0804100C18140AE
:102A200000C1814001C0804101C0804100C181409E
:102A300001C0804100C1814000C1814001C080418E
:102A400001C0804100C1814000C1814001C080417E
:102A500000C1814001C0804101C0804100C181406E
:102A600000C1814001C0804101C0804100C181405E
:102A700001C0804100C1814000C1814001C080414E
:102A800000C1814001C0804101C0804100C181403E
:102A900001C0804100C1814000C1814001C080412E
:102AA00001C0804100C1814000C1814001C080411E
:102AB00000C1814001C0804101C0804100C181400E
:102AC00000C0C101C30302C2C60607C705C5C404CE
:102AD000CC0C0DCD0FCFCE0E0ACACB0BC90908C83E
:102AE000D81819D91BDBDA1A1EDEDF1FDD1D1CDC2E
:102AF00014D4D515D71716D6D21213D311D1D0109E
:102B0000F03031F133F3F23236F6F737F53534F48D
:102B10003CFCFD3DFF3F3EFEFA3A3BFB39F9F838FD
:102B200028E8E929EB2B2AEAEE2E2FEF2DEDEC2CED
:102B3000E42425E527E7E62622E2E323E12120E05D
:102B4000A06061A163A3A26266A6A767A56564A44D
:102B50006CACAD6DAF6F6EAEAA6A6BAB69A9A868BD
:102B600078B8B979BB7B7ABABE7E7FBF7DBDBC7CAD
:102B7000B47475B577B7B67672B2B373B17170B01D
:102B8000509091519353529296565797559594540D
:102B90009C5C5D9D5F9F9E5E5A9A9B5B995958987D
:102BA000884849894B8B8A4A4E8E8F4F8D4D4C8C6D
:102BB00044848545874746868242438341818040DD
:102BC00000000000000000000102030406070809DD
:102BD0000000000001020304F82B000800000020A0
:102BE000F0000000B8180008E82C0008F0000020F1
:102BF00048060000C818000800000000000000009F
:102C000000000000020000000000000000000000C2
:102C100000000000000000000000000000000000B4
:102C200000000000000000000000000000000000A4
:102C300011000000E91E000804000000EB1D000860
:102C4000030000008D1D000810000000F91F00089F
:102C500006000000631F0008170000004D1E00085A
:102C600001000000A91C0008050000000D1F00085D
:102C70000F000000951F0008020000001B1D000847
:102C80000000000000000000000000000000000044
:102C90000000000000000000000000000000000034
:102CA0000000000000000000000000000000000024
:102CB000000000000000000000000000F000002004
:102CC000000000000000E803000000000000000019
:102CD00000000000010000001000000000000000E3
:082CE00000A24A0400000000FC
:0400000508000131BD
:00000001FF
