:020000040800F2
:1000000020040020450100081F0B0008730A0008A7
:100010001D0B00088D010008090C000800000000FD
:10002000000000000000000000000000430B00087A
:100030008F01000800000000410B0008450B00087C
:100040005F0100085F0100085F0100085F01000810
:100050005F0100085F0100085F0100085F01000800
:100060005F0100085F0100085F0100085F010008F0
:100070005F0100085F0100085F0100085F010008E0
:100080005F0100085F0100085F0100085F010008D0
:100090005F0100085F0100085F0100085F010008C0
:1000A0005F0100085F0100085F0100085F010008B0
:1000B0005F0100085F0100085F0100085F010008A0
:1000C0005F0100085F0100085F0100085F01000890
:1000D0005F0100085F0100085F0100085F01000880
:1000E0005F0100085F0100085F0100085F01000870
:1000F0005F0100085F0100085F0100085F01000860
:100100005F0100085F0100085F0100085F0100084F
:100110005F0100085F0100085F0100085F0100083F
:100120005F0100085F0100085F0100085F0100082F
:10013000DFF80CD000F018F8004800472D0C00083C
:10014000200400200648804706480047FEE7FEE7F7
:10015000FEE7FEE7FEE7FEE7FEE7FEE7FEE7FEE777
:10016000C10B000831010008064C074D06E0E068AD
:1001700040F0010394E8070098471034AC42F6D3EE
:10018000FFF7DAFFA00C0008C00C0008FEE770477C
:100190002DE9F84FDFF8B8A100220AF1040B14464C
:1001A00001274FF00F090BF1040E00BF0B6807FA8F
:1001B00004F52B40AB4274D1DFF898C14E68A6EB32
:1001C0000C0866452BD00DDC032E34D005DC36B38D
:1001D000012E19D0022E2FD11BE0112E16D0122E77
:1001E0002AD119E0B8F5881F19D006DCB8F5803F90
:1001F00015D0B8F5801F1FD111E0B8F5001F0ED043
:10020000B8F5041F18D10AE0CA6815E0CA68121DC3
:1002100012E0CA6808320FE0CA680C320CE08A6843
:100220002AB1012A4FF0080203D0456104E00422FC
:1002300002E0056100E00022FF2B01D8064601E044
:1002400000F104064FEA840501D9A5F12005D6F88E
:1002500000C009FA05F82CEA080C02FA05F54CEA88
:10026000050CC6F800C04D68ED006AD53A4DAE6980
:1002700046F00106AE61AD6924F0030605F0010504
:100280000095364D06EB050CDCF80850A6074FEA42
:10029000167809FA08F6B543314EB04202D100266D
:1002A0001AE04EE02F4EB04201D1012614E02E4E4E
:1002B000B04201D102260FE02C4EB04201D10326FC
:1002C0000AE02B4EB04201D1042605E0294EB0428F
:1002D00001D1052600E0062606FA08F62E43CCF8E2
:1002E00008604D68DAF80060ED03554601D51E43FD
:1002F00000E09E432E604D68AD0305D5DBF800603D
:100300001E43CBF8006004E0DBF800509D43CBF8BF
:1003100000504D68DEF80060ED02754601D51E43C1
:1003200000E09E432E604D68AD0205D5084D0C35AA
:100330002E681E432E6004E0054E0C3635689D4342
:100340003560641C102CFFF431AFBDE8F88F00005D
:1003500000040140000011100010024000000140A4
:1003600000080140000C0140001001400014014051
:1003700000180140001C01400AB1016170470904E6
:10038000FBE7000001488068704700000000002083
:1003900070B5040011D021684CF6CC40086021688B
:1003A00045F255500860D4E9000141602168A06819
:1003B0008860FFF7E7FF054609E0012070BD00BF38
:1003C000FFF7E0FF401B302801D9032070BD2068F3
:1003D000C0680028F4D121684AF6AA2008600020ED
:1003E00070BD00684AF6AA21016000207047000035
:1003F0000248816802781144816070470000002043
:10040000074810B5016841F010010160032000F0B9
:1004100091F8002000F006F800F024F8002010BD4C
:100420000020024070B50D4D04464FF47A712878D3
:10043000B1FBF0F00A490968B1FBF0F000F001FBF4
:1004400048B9102C07D200222146501E00F052F865
:1004500000206C6070BD012070BD00000000002015
:100460000C000020214808B5816941F0010181613B
:10047000816901F001010091C16941F08051C161C0
:10048000C06900F080500090032000F053F8002273
:1004900011466FF00B0000F02DF8002211466FF0AE
:1004A0000A0000F027F8002211466FF0090000F062
:1004B00021F800221146501F00F01CF800221146BE
:1004C000101F00F017F800221146901E00F012F8DD
:1004D00000221146501E00F00DF80548416821F039
:1004E000E06141F08061416008BD00000010024001
:1004F00000000140F0B40E4B1B680C46C3F302230E
:10050000C3F10705042D00D90425191D072901D2BF
:10051000002300E0DB1E012606FA05F1491E2140FA
:1005200099409E40761E16403143F0BC00F0F8BA68
:100530000CED00E0064900F0070208684FF6FF03E3
:10054000184040EA0220034A104308607047000048
:100550000CED00E00000FA052DE9F047DFF83C81E2
:1005600005460E46D8F8000000F00700B0420CD255
:10057000D8F8001021F007013143C8F80010D8F86E
:10058000000000F00700B04263D12878444C800797
:1005900005D56068A96820F0F000084360602878FD
:1005A000C00745D06868012816D02168022816D0F7
:1005B000890700294DDA616821F003010143616078
:1005C000FFF7E0FE6968074641F2883001290FD045
:1005D0000229814619D027E021688903E9E78901CA
:1005E000E7E700BFFFF7CEFEC11B494501D918E080
:1005F00081466068C0F381000128F3D118E000BF94
:10060000FFF7C0FEC11B49450BD86068C0F38100ED
:100610000228F5D10CE000BFFFF7B4FEC11B49452D
:1006200002D90320BDE8F087606810F00C0FF3D109
:10063000D8F80010404601F00701B1420BD901681B
:1006400021F0070131430160006800F00700B0426B
:1006500001D00120E6E72878400705D56068E96801
:1006600020F4E060084360602878000706D56068E1
:10067000296920F4605040EAC100606000F01CF875
:100680006168084AC1F30311515CC840064908601B
:100690000020FFF7C7FE0020C4E700000020024052
:1006A00000100240900C00080C0000200148006877
:1006B000704700000C00002012A185B00FC98DE822
:1006C0000F0014A0144A006804905168134801F008
:1006D0000C03042B10D0082B0ED1C1F38343C903A4
:1006E0001DF803000AD5516804AAC1F34041515CCA
:1006F0000A4A5043B0FBF1F005B07047084948433F
:10070000FAE7000002030405060708090A0B0C0DAE
:100710000E0F1010010200000010024000127A00BB
:1007200000093D002DE9F84F04460078B94DC00797
:1007300048D06868C0F38100012807D06868C0F31A
:100740008100022809D16868C00306D528688003A3
:1007500038D5606800286FD034E06068B0F5803F1D
:100760000BD010B1B0F5A02F11D0286820F4803044
:100770002860286820F4802002E0286840F4803057
:100780002860606888B1FFF7FDFD064609E028682B
:1007900040F480202860F0E7FFF7F4FD801B642818
:1007A00075D828688003F7D50CE0FFF7EBFD064607
:1007B00005E000BFFFF7E6FD801B6428F0D828683D
:1007C0008003F7D42078944E80074FF001094FF052
:1007D00000083BD5686810F00C0F07D06868C0F3BC
:1007E0008100022809D16868C00306D42868800700
:1007F00014D5206901281FD110E02069B0B1C6F8D6
:100800000090FFF7BFFD074605E000BFFFF7BAFD08
:10081000C01B0228C4D828688007F7D528686169FA
:1008200020F0F80040EAC10028600FE0C6F8008020
:10083000FFF7A8FD074606E0E9E000BFFFF7A2FDCD
:10084000C01B022823D828688007F7D42078000727
:100850002CD57248A169D9B1C0F80090FFF792FD7C
:10086000074604E0FFF78EFDC01B02280FD8686A18
:100870008007F7D56A484FF4FA510068B0FBF1F0F1
:10088000009000BF0098411E0091FAD20EE080E077
:10089000C0F80080FFF776FD074604E0FFF772FD21
:1008A000C01B022875D8686A8007F7D420784007F3
:1008B00060D5E8690027C00008D4E86940F080509E
:1008C000E861E869012700F0805000905548016810
:1008D000C90513D40168834641F480710160FFF7B4
:1008E00051FD824606E000BFFFF74CFDA0EB0A0079
:1008F00064284ED8DBF80000C005F5D5E068012873
:100900000AD008B1052813D0286A20F00100286217
:10091000286A20F0040002E0286A40F00100286202
:10092000E06841F2883B98B1FFF72CFD82460BE06E
:10093000286A40F004002862EEE700BFFFF722FDBE
:10094000A0EB0A0159455AD8286A8007F6D50CE071
:10095000FFF718FD824605E0FFF714FDA0EB0A0142
:1009600059454CD8286A8007F6D41FB1E86920F0B1
:100970008050E861E06988B36968C1F381010229A8
:1009800045D00228C6F8608004D0FFF7FBFC04467F
:1009900038E034E0FFF7F6FC074604E0FFF7F2FC2E
:1009A000C01B02282BD828688001F7D4206AB0F534
:1009B000803F05D16868A16820F400300843686072
:1009C000D4E908010843696821F474110843686098
:1009D000C6F86090FFF7D6FC044606E015E000BFBD
:1009E000FFF7D0FC001B022809D828688001F7D542
:1009F0000BE000BFFFF7C6FC001B022802D9032052
:100A0000BDE8F88F28688001F4D40020F8E70120C1
:100A1000F6E700000010024000004242800442421B
:100A20000C000020007000404FF0E021042808690D
:100A300003D020F004000861704740F00400FAE79A
:100A4000704710B5401EB0F1807F01D3012010BD6A
:100A50004FF0E02460610F21601700F061F8002082
:100A6000A06107202061002010BD10B5FFF7E8FF4E
:100A700010BDFEE770B5164886B0816941F00401EB
:100A80008161816901F004010491816941F00801EB
:100A9000816180690F4E00F008000490002223213C
:100AA0003046FFF769FC00240125CDE90054694672
:100AB00009480294FFF76CFB2320CDE900050220D2
:100AC000CDE9024069463046FFF762FB06B070BDD3
:100AD00000100240000C0140000801400A4810B517
:100AE000084901600421416040F271218160FFF7F3
:100AF0004FFC002805D0BDE810403A2103A000F0CB
:100B000084B810BD00300040100000202E2E2F535E
:100B100072632F697764672E63000000FEE77047F9
:100B20000907090E002806DA00F00F0000F1E020A6
:100B300080F8141D704700F1E02080F80014704721
:100B40007047704710B5FFF753FCBDE81040FFF742
:100B50008CBF30B58FB00920012100904FF4803058
:100B6000002404910691CDE901040225CDE9075046
:100B70004FF4E01009906846FFF7D4FD00B1FEE79E
:100B80000F20CDE90A054FF48060CDE90C40022129
:100B90000AA80E94FFF7E0FC00B1FEE7FFF786FD20
:100BA0004FF47A71B0FBF1F0FFF74BFF0420FFF731
:100BB0003BFF00221146501EFFF79CFC0FB030BDDA
:100BC0000D48016841F00101016041680B4A114084
:100BD000416001680A4A11400160016821F48021E6
:100BE0000160416821F4FE0141604FF41F01816002
:100BF0000449C00308607047001002400000FFF87D
:100C0000FFFFF6FE08ED00E0FEE7FEE702E008C8A1
:100C1000121F08C1002AFAD170477047002001E076
:100C200001C1121F002AFBD170470000FFF7E8FB4B
:100C3000FFF78FFFFFF71EFFFFF750FF1048406AD6
:100C4000104C10F0005F4FF000024FF023012046DF
:100C50000AD0FFF791FB012203212046FFF78CFB0E
:100C600009490120086006E0FFF786FB01222121E7
:100C70002046FFF781FB0548FFF7B3FBFBE70000C9
:100C800000100240000C0140E0044242100000202D
:100C9000000000000000000001020304060708092C
:100CA000C00C000800000020100000000C0C000820
:100CB000D00C000810000020100400001C0C0008DC
:100CC00001000000100000000000000000A24A0423
:0400000508000131BD
:00000001FF
